:03000000020A30C1
:0C0A3000787FE4F6D8FD758135020A7766
:100B3200020800000A0A0000000000000000000095
:100B42000A20000000000000000000000A16000059
:100B520000000000000000000A2C003F0006005BBD
:0C0B6200004F0066022A0000021400018F
:100BD100E4FFFEE4FCFD0DBD00010CED64644C700E
:0C0BE100F50FBF00010EBE01EABFF4E7F3
:010BED0022E5
:100BAA00E4FFFEE4FCFD0DBD00010CED64C84C70D1
:100BBA00F50FBF00010EBE07EABFD0E730B707D274
:060BCA0096C295120BAA71
:010BD0002202
:100BEE00E4FFFEE4FCFD0DBD00010CED64644C70F1
:0C0BFE00F50FBF00010EBE03EABFE8E7E0
:010C0A0022C7
:100C0B00E4FFFEE4FCFD0DBD00010CED645A4C70DD
:0C0C1B00F50FBF00010EBE03EABFE8E7C2
:010C270022AA
:100ABC00209406750A00750B01209306750C0075C1
:100ACC000D01209206750E00750F01209106751010
:100ADC000075110120900675120075130120800617
:100AEC0075200075210120860675220075230120D2
:100AFC008706751600751701208406752400752568
:100B0C0001208506751800751901208206752600CE
:100B1C00752701208306751A00751B012081067547
:060B2C001C00751D0122F2
:0C0C4A00D296C295120BAAD295C2962237
:100C2800D2B0C2B1120BEEC2B0D2B1120C0BC2B12B
:010C38002299
:100C3900D2B1C2B0120BEEC2B1D2B0120C0BC2B01B
:010C49002288
:0C0C5600758911758CDDE4F58AD28C22C2
:03000B00020C697B
:040C6900120ABC327D
:070C6200D2AFD2AAD28A2210
:03001300020B6F6E
:100B6F00C0E0C0F0C083C082C0D075D000C000C04C
:100B7F0001C002C003C004C005C006C007120C4A62
:100B8F00D007D006D005D004D003D002D001D000BA
:0B0B9F00D0D0D082D083D0F0D0E03264
:10080000120C56120C62C296D29575B0C0D2AFD2FD
:10081000A975A03FE4F52AF52BF52AF52BAF2BEFB0
:1008200025E0240AF8E6FC08E64C700DEF25E024EC
:1008300020F8E6FE08E64E6074D3E52B9509E5083E
:100840006480F8E52A6480984063E509652B7004AC
:10085000E508652A6057120C280509E509700205AC
:1008600008FF25E0242CF808E6F5A0EF25E0240A8F
:10087000F8E6FE08E64E700EE50925E02420F8E6CD
:10088000FE08E64E60C4120C4AAF09EF25E0240AC8
:10089000F8E4F608F6EF25E02420F8E4F608F6F58B
:1008A0000AF50BF520F521F516F517809DE52B25AA
:1008B000E02420F8E6FE08E64E6051C3E52B9509DA
:1008C000E5086480F8E52A6480985040E509652BC6
:1008D0007004E508652A6034120C39E509150970C1
:1008E000021508AF09EF25E0242CF808E6F5A0EF83
:1008F00025E02420F8E6FE08E64E60D0120C4AE51A
:100900000925E02420F8E4F608F680C0052BE52B45
:100910007002052AC39405E52A648094805003027E
:10092000081D752A00752B04752A00752B04C3E574
:100930002A648094805003020814AF2BEF25E02432
:100940000AF8E6FC08E64C700DEF25E02414F8E602
:10095000FE08E64E6072C3E52B9509E5086480F851
:10096000E52A6480985061E509652B7004E5086507
:100970002A6055120C39E509150970021508AF09EE
:10098000EF25E0242CF808E6F5A0EF25E0240AF88E
:10099000E6FE08E64E700EE50925E02414F8E6FEB2
:1009A00008E64E60C2120C4AAF09EF25E0240AF8AF
:1009B000E4F608F6EF25E02414F8E4F608F6F5204E
:1009C000F521F50AF50B809FE52B25E02414F8E6C8
:1009D000FE08E64E604FD3E52B9509E5086480F8E4
:1009E000E52A648098403EE509652B7004E50865BA
:1009F0002A6032120C280509E50970020508FF2556
:100A0000E0242CF808E6F5A0EF25E02414F8E6FE33
:100A100008E64E60D2120C4AE50925E02414F8E4F9
:100A2000F608F680C2E52B152B7002152A02092E56
:100A3C00020800E493A3F8E493A34003F68001F2C8
:100A4C0008DFF48029E493A3F85407240CC8C333BB
:100A5C00C4540F4420C8834004F456800146F6DF8A
:100A6C00E4800B0102040810204080900B32E47EDD
:100A7C00019360BCA3FF543F30E509541FFEE4937F
:100A8C00A360010ECF54C025E060A840B8E493A346
:100A9C00FAE493A3F8E493A3C8C582C8CAC583CA71
:100AAC00F0A3C8C582C8CAC583CADFE9DEE780BE29
:010B6E000086
:00000001FF
